{
  "_format": "hh-sol-artifact-1",
  "contractName": "TradingVault",
  "sourceName": "contracts/contracts/TradingVault.sol",
  "abi": [
    {
      "inputs": [
        {
          "internalType": "address",
          "name": "token",
          "type": "address"
        },
        {
          "internalType": "address",
          "name": "initialOwner",
          "type": "address"
        }
      ],
      "stateMutability": "nonpayable",
      "type": "constructor"
    },
    {
      "inputs": [],
      "name": "InsufficientAvailableBalance",
      "type": "error"
    },
    {
      "inputs": [],
      "name": "InsufficientBotAllocation",
      "type": "error"
    },
    {
      "inputs": [],
      "name": "InvalidTrade",
      "type": "error"
    },
    {
      "inputs": [
        {
          "internalType": "address",
          "name": "owner",
          "type": "address"
        }
      ],
      "name": "OwnableInvalidOwner",
      "type": "error"
    },
    {
      "inputs": [
        {
          "internalType": "address",
          "name": "account",
          "type": "address"
        }
      ],
      "name": "OwnableUnauthorizedAccount",
      "type": "error"
    },
    {
      "inputs": [],
      "name": "ReentrancyGuardReentrantCall",
      "type": "error"
    },
    {
      "inputs": [
        {
          "internalType": "address",
          "name": "token",
          "type": "address"
        }
      ],
      "name": "SafeERC20FailedOperation",
      "type": "error"
    },
    {
      "inputs": [],
      "name": "TradeAlreadyClosed",
      "type": "error"
    },
    {
      "inputs": [],
      "name": "UnauthorizedRecorder",
      "type": "error"
    },
    {
      "inputs": [
        {
          "internalType": "uint8",
          "name": "botId",
          "type": "uint8"
        }
      ],
      "name": "UnknownBot",
      "type": "error"
    },
    {
      "anonymous": false,
      "inputs": [
        {
          "indexed": true,
          "internalType": "address",
          "name": "user",
          "type": "address"
        },
        {
          "indexed": true,
          "internalType": "uint8",
          "name": "botId",
          "type": "uint8"
        },
        {
          "indexed": false,
          "internalType": "uint256",
          "name": "amount",
          "type": "uint256"
        }
      ],
      "name": "BotAllocated",
      "type": "event"
    },
    {
      "anonymous": false,
      "inputs": [
        {
          "indexed": true,
          "internalType": "address",
          "name": "user",
          "type": "address"
        },
        {
          "indexed": true,
          "internalType": "uint8",
          "name": "botId",
          "type": "uint8"
        },
        {
          "indexed": false,
          "internalType": "uint256",
          "name": "amount",
          "type": "uint256"
        }
      ],
      "name": "BotDeallocated",
      "type": "event"
    },
    {
      "anonymous": false,
      "inputs": [
        {
          "indexed": true,
          "internalType": "address",
          "name": "user",
          "type": "address"
        },
        {
          "indexed": false,
          "internalType": "uint256",
          "name": "amount",
          "type": "uint256"
        }
      ],
      "name": "Deposited",
      "type": "event"
    },
    {
      "anonymous": false,
      "inputs": [
        {
          "indexed": true,
          "internalType": "address",
          "name": "previousOwner",
          "type": "address"
        },
        {
          "indexed": true,
          "internalType": "address",
          "name": "newOwner",
          "type": "address"
        }
      ],
      "name": "OwnershipTransferred",
      "type": "event"
    },
    {
      "anonymous": false,
      "inputs": [
        {
          "indexed": true,
          "internalType": "uint256",
          "name": "tradeId",
          "type": "uint256"
        },
        {
          "indexed": true,
          "internalType": "address",
          "name": "user",
          "type": "address"
        },
        {
          "indexed": true,
          "internalType": "uint8",
          "name": "botId",
          "type": "uint8"
        },
        {
          "indexed": false,
          "internalType": "uint256",
          "name": "exitPrice",
          "type": "uint256"
        },
        {
          "indexed": false,
          "internalType": "int256",
          "name": "pnl",
          "type": "int256"
        },
        {
          "indexed": false,
          "internalType": "bool",
          "name": "win",
          "type": "bool"
        }
      ],
      "name": "TradeClosed",
      "type": "event"
    },
    {
      "anonymous": false,
      "inputs": [
        {
          "indexed": true,
          "internalType": "uint256",
          "name": "tradeId",
          "type": "uint256"
        },
        {
          "indexed": true,
          "internalType": "address",
          "name": "user",
          "type": "address"
        },
        {
          "indexed": true,
          "internalType": "uint8",
          "name": "botId",
          "type": "uint8"
        },
        {
          "indexed": false,
          "internalType": "string",
          "name": "symbol",
          "type": "string"
        },
        {
          "indexed": false,
          "internalType": "bool",
          "name": "isLong",
          "type": "bool"
        },
        {
          "indexed": false,
          "internalType": "uint256",
          "name": "collateral",
          "type": "uint256"
        },
        {
          "indexed": false,
          "internalType": "uint256",
          "name": "entryPrice",
          "type": "uint256"
        }
      ],
      "name": "TradeOpened",
      "type": "event"
    },
    {
      "anonymous": false,
      "inputs": [
        {
          "indexed": true,
          "internalType": "address",
          "name": "recorder",
          "type": "address"
        }
      ],
      "name": "TradeRecorderUpdated",
      "type": "event"
    },
    {
      "anonymous": false,
      "inputs": [
        {
          "indexed": true,
          "internalType": "address",
          "name": "user",
          "type": "address"
        },
        {
          "indexed": false,
          "internalType": "uint256",
          "name": "amount",
          "type": "uint256"
        }
      ],
      "name": "Withdrawn",
      "type": "event"
    },
    {
      "inputs": [
        {
          "internalType": "uint8",
          "name": "botId",
          "type": "uint8"
        },
        {
          "internalType": "uint256",
          "name": "amount",
          "type": "uint256"
        }
      ],
      "name": "allocate",
      "outputs": [],
      "stateMutability": "nonpayable",
      "type": "function"
    },
    {
      "inputs": [
        {
          "internalType": "address",
          "name": "",
          "type": "address"
        }
      ],
      "name": "availableBalance",
      "outputs": [
        {
          "internalType": "uint256",
          "name": "",
          "type": "uint256"
        }
      ],
      "stateMutability": "view",
      "type": "function"
    },
    {
      "inputs": [
        {
          "internalType": "address",
          "name": "",
          "type": "address"
        },
        {
          "internalType": "uint8",
          "name": "",
          "type": "uint8"
        }
      ],
      "name": "botAllocation",
      "outputs": [
        {
          "internalType": "uint256",
          "name": "",
          "type": "uint256"
        }
      ],
      "stateMutability": "view",
      "type": "function"
    },
    {
      "inputs": [
        {
          "internalType": "uint8",
          "name": "",
          "type": "uint8"
        }
      ],
      "name": "bots",
      "outputs": [
        {
          "internalType": "string",
          "name": "name",
          "type": "string"
        },
        {
          "internalType": "string",
          "name": "style",
          "type": "string"
        },
        {
          "internalType": "bool",
          "name": "enabled",
          "type": "bool"
        }
      ],
      "stateMutability": "view",
      "type": "function"
    },
    {
      "inputs": [
        {
          "internalType": "uint256",
          "name": "tradeId",
          "type": "uint256"
        },
        {
          "internalType": "uint256",
          "name": "exitPrice",
          "type": "uint256"
        },
        {
          "internalType": "int256",
          "name": "pnl",
          "type": "int256"
        }
      ],
      "name": "closeTrade",
      "outputs": [],
      "stateMutability": "nonpayable",
      "type": "function"
    },
    {
      "inputs": [],
      "name": "collateralToken",
      "outputs": [
        {
          "internalType": "contract IMintableCollateral",
          "name": "",
          "type": "address"
        }
      ],
      "stateMutability": "view",
      "type": "function"
    },
    {
      "inputs": [
        {
          "internalType": "uint8",
          "name": "botId",
          "type": "uint8"
        },
        {
          "internalType": "uint256",
          "name": "amount",
          "type": "uint256"
        }
      ],
      "name": "deallocate",
      "outputs": [],
      "stateMutability": "nonpayable",
      "type": "function"
    },
    {
      "inputs": [
        {
          "internalType": "uint256",
          "name": "amount",
          "type": "uint256"
        }
      ],
      "name": "deposit",
      "outputs": [],
      "stateMutability": "nonpayable",
      "type": "function"
    },
    {
      "inputs": [
        {
          "internalType": "uint8",
          "name": "botId",
          "type": "uint8"
        }
      ],
      "name": "getBot",
      "outputs": [
        {
          "components": [
            {
              "internalType": "string",
              "name": "name",
              "type": "string"
            },
            {
              "internalType": "string",
              "name": "style",
              "type": "string"
            },
            {
              "internalType": "bool",
              "name": "enabled",
              "type": "bool"
            }
          ],
          "internalType": "struct TradingVault.Bot",
          "name": "",
          "type": "tuple"
        }
      ],
      "stateMutability": "view",
      "type": "function"
    },
    {
      "inputs": [
        {
          "internalType": "address",
          "name": "user",
          "type": "address"
        }
      ],
      "name": "getUserTrades",
      "outputs": [
        {
          "internalType": "uint256[]",
          "name": "",
          "type": "uint256[]"
        }
      ],
      "stateMutability": "view",
      "type": "function"
    },
    {
      "inputs": [],
      "name": "nextTradeId",
      "outputs": [
        {
          "internalType": "uint256",
          "name": "",
          "type": "uint256"
        }
      ],
      "stateMutability": "view",
      "type": "function"
    },
    {
      "inputs": [
        {
          "internalType": "address",
          "name": "user",
          "type": "address"
        },
        {
          "internalType": "uint8",
          "name": "botId",
          "type": "uint8"
        },
        {
          "internalType": "string",
          "name": "symbol",
          "type": "string"
        },
        {
          "internalType": "bool",
          "name": "isLong",
          "type": "bool"
        },
        {
          "internalType": "uint256",
          "name": "collateral",
          "type": "uint256"
        },
        {
          "internalType": "uint256",
          "name": "entryPrice",
          "type": "uint256"
        }
      ],
      "name": "openTrade",
      "outputs": [
        {
          "internalType": "uint256",
          "name": "tradeId",
          "type": "uint256"
        }
      ],
      "stateMutability": "nonpayable",
      "type": "function"
    },
    {
      "inputs": [],
      "name": "owner",
      "outputs": [
        {
          "internalType": "address",
          "name": "",
          "type": "address"
        }
      ],
      "stateMutability": "view",
      "type": "function"
    },
    {
      "inputs": [],
      "name": "renounceOwnership",
      "outputs": [],
      "stateMutability": "nonpayable",
      "type": "function"
    },
    {
      "inputs": [
        {
          "internalType": "address",
          "name": "recorder",
          "type": "address"
        }
      ],
      "name": "setTradeRecorder",
      "outputs": [],
      "stateMutability": "nonpayable",
      "type": "function"
    },
    {
      "inputs": [],
      "name": "tradeRecorder",
      "outputs": [
        {
          "internalType": "address",
          "name": "",
          "type": "address"
        }
      ],
      "stateMutability": "view",
      "type": "function"
    },
    {
      "inputs": [
        {
          "internalType": "uint256",
          "name": "",
          "type": "uint256"
        }
      ],
      "name": "trades",
      "outputs": [
        {
          "internalType": "uint256",
          "name": "id",
          "type": "uint256"
        },
        {
          "internalType": "address",
          "name": "user",
          "type": "address"
        },
        {
          "internalType": "uint8",
          "name": "botId",
          "type": "uint8"
        },
        {
          "internalType": "string",
          "name": "symbol",
          "type": "string"
        },
        {
          "internalType": "bool",
          "name": "isLong",
          "type": "bool"
        },
        {
          "internalType": "uint256",
          "name": "collateral",
          "type": "uint256"
        },
        {
          "internalType": "uint256",
          "name": "entryPrice",
          "type": "uint256"
        },
        {
          "internalType": "uint256",
          "name": "exitPrice",
          "type": "uint256"
        },
        {
          "internalType": "int256",
          "name": "pnl",
          "type": "int256"
        },
        {
          "internalType": "uint64",
          "name": "openedAt",
          "type": "uint64"
        },
        {
          "internalType": "uint64",
          "name": "closedAt",
          "type": "uint64"
        },
        {
          "internalType": "enum TradingVault.TradeStatus",
          "name": "status",
          "type": "uint8"
        }
      ],
      "stateMutability": "view",
      "type": "function"
    },
    {
      "inputs": [
        {
          "internalType": "address",
          "name": "newOwner",
          "type": "address"
        }
      ],
      "name": "transferOwnership",
      "outputs": [],
      "stateMutability": "nonpayable",
      "type": "function"
    },
    {
      "inputs": [
        {
          "internalType": "uint256",
          "name": "amount",
          "type": "uint256"
        }
      ],
      "name": "withdraw",
      "outputs": [],
      "stateMutability": "nonpayable",
      "type": "function"
    }
  ],
  "bytecode": "0x60a060405260016002553480156200001657600080fd5b506040516200206e3803806200206e8339810160408190526200003991620004e8565b806001600160a01b0381166200006957604051631e4fbdf760e01b81526000600482015260240160405180910390fd5b62000074816200047b565b5060017f9b779b17422d0df92223018b32b4d1fa46e071723d6817e2486d003becc55f00556001600160a01b03821660809081526040805160a081018252600460608201908152632334b73760e11b938201939093529182528051808201825260088152674d6f6d656e74756d60c01b6020828101919091528084019190915260019183018290526000919091526003905280517fa15bc60c955c405d20d9149c709e2460f1c2d9a497496a7f46004d1772c3054c908190620001389082620005c7565b50602082015160018201906200014f9082620005c7565b506040918201516002918201805460ff1916911515919091179055815160a081018352600660608201908152652a3cb1b7b7b760d11b6080830152815282518084018452600e81526d2a3932b732103337b63637bbb2b960911b60208083019190915280830191909152600193820193909352600091909152600390915280517fc3a24b0501bd2c13a7e57f2db4369ec4c223447539fc0724a9d55ac4a06ebd4d908190620001ff9082620005c7565b5060208201516001820190620002169082620005c7565b50604091820151600291909101805460ff1916911515919091179055805160a08101825260046060820190815263283ab33360e11b60808301528152815180830183526008815267109c99585adbdd5d60c21b602080830191909152808301919091526001928201929092526003600081905290915280517fcbc4e5fb02c3d1de23a9f1e014b4d2ee5aeaea9505df5e855c9210bf472495af908190620002be9082620005c7565b5060208201516001820190620002d59082620005c7565b50604091820151600291909101805460ff1916911515919091179055805160a0810182526005606082018181526447656d6d6160d81b60808401528252825180840184529081526452616e676560d81b602080830191909152808301919091526001928201929092526004600052600390915280517f83ec6a1f0257b830b5e016457c9cf1435391bf56cc98f369a58a54fe937724659081906200037a9082620005c7565b5060208201516001820190620003919082620005c7565b50604091820151600291909101805460ff1916911515919091179055805160a08101825260046060820190815263094dee6d60e31b6080830152815281518083018352600e81526d151c995b99081c995d995c9cd85b60921b602080830191909152808301919091526001928201929092526005600052600390915280517f405aad32e1adbac89bb7f176e338b8fc6e994ca210c9bb7bdca249b4659422509081906200043f9082620005c7565b5060208201516001820190620004569082620005c7565b50604091909101516002909101805460ff191691151591909117905550620006939050565b600080546001600160a01b038381166001600160a01b0319831681178455604051919092169283917f8be0079c531659141344cd1fd0a4f28419497f9722a3daafe3b4186f6b6457e09190a35050565b80516001600160a01b0381168114620004e357600080fd5b919050565b60008060408385031215620004fc57600080fd5b6200050783620004cb565b91506200051760208401620004cb565b90509250929050565b634e487b7160e01b600052604160045260246000fd5b600181811c908216806200054b57607f821691505b6020821081036200056c57634e487b7160e01b600052602260045260246000fd5b50919050565b601f821115620005c2576000816000526020600020601f850160051c810160208610156200059d5750805b601f850160051c820191505b81811015620005be57828155600101620005a9565b5050505b505050565b81516001600160401b03811115620005e357620005e362000520565b620005fb81620005f4845462000536565b8462000572565b602080601f8311600181146200063357600084156200061a5750858301515b600019600386901b1c1916600185901b178555620005be565b600085815260208120601f198616915b82811015620006645788860151825594840194600190910190840162000643565b5085821015620006835787850151600019600388901b60f8161c191681555b5050505050600190811b01905550565b6080516119aa620006c4600039600081816102db0152818161049b015281816109ed01526110b101526119aa6000f3fe608060405234801561001057600080fd5b50600436106101215760003560e01c80637bf6eac4116100ad5780639d0fed2a116100715780639d0fed2a146102a3578063a0821be3146102b6578063b2016bd4146102d6578063b6b55f25146102fd578063f2fde38b1461031057600080fd5b80637bf6eac414610236578063813ad083146102565780638da5cb5b1461025f5780639015dd9e14610270578063927c77421461028357600080fd5b80635ad3a53a116100f45780635ad3a53a146101bb5780636185877a146101e6578063703a1296146101f9578063715018a61461021b578063743947071461022357600080fd5b80631e6c598e146101265780632e1a7d4d1461015a5780634cab76141461016f57806351582737146101a8575b600080fd5b6101396101343660046113a5565b610323565b6040516101519c9b9a9998979695949392919061143c565b60405180910390f35b61016d6101683660046113a5565b610431565b005b61019a61017d3660046114fc565b600560209081526000928352604080842090915290825290205481565b604051908152602001610151565b61016d6101b636600461152f565b610524565b6001546101ce906001600160a01b031681565b6040516001600160a01b039091168152602001610151565b61016d6101f436600461152f565b610638565b61020c610207366004611559565b610730565b6040516101519392919061157b565b61016d610865565b61016d6102313660046115b3565b610879565b610249610244366004611559565b610b13565b60405161015191906115df565b61019a60025481565b6000546001600160a01b03166101ce565b61016d61027e366004611631565b610c86565b610296610291366004611631565b610cd8565b604051610151919061164c565b61019a6102b13660046116a0565b610d44565b61019a6102c4366004611631565b60046020526000908152604090205481565b6101ce7f000000000000000000000000000000000000000000000000000000000000000081565b61016d61030b3660046113a5565b61109c565b61016d61031e366004611631565b61112f565b60066020526000908152604090208054600182015460028301805492936001600160a01b03831693600160a01b90930460ff169290919061036390611758565b80601f016020809104026020016040519081016040528092919081815260200182805461038f90611758565b80156103dc5780601f106103b1576101008083540402835291602001916103dc565b820191906000526020600020905b8154815290600101906020018083116103bf57829003601f168201915b5050505060038301546004840154600585015460068601546007870154600890970154959660ff948516969395509193909267ffffffffffffffff80821692600160401b830490911691600160801b9004168c565b61043961116a565b336000908152600460205260409020548111156104695760405163528ef59f60e11b815260040160405180910390fd5b33600090815260046020526040812080548392906104889084906117a8565b909155506104c290506001600160a01b037f0000000000000000000000000000000000000000000000000000000000000000163383611198565b60405181815233907f7084f5476618d8e60b11ef0d7d3f06914655adb8793e28ff7f018d4c76d505d5906020015b60405180910390a261052160017f9b779b17422d0df92223018b32b4d1fa46e071723d6817e2486d003becc55f0055565b50565b60ff808316600090815260036020526040902060020154839116610564576040516234472160e41b815260ff821660048201526024015b60405180910390fd5b33600090815260056020908152604080832060ff871684529091529020548211156105a257604051632541108b60e01b815260040160405180910390fd5b33600090815260056020908152604080832060ff87168452909152812080548492906105cf9084906117a8565b909155505033600090815260046020526040812080548492906105f39084906117c1565b909155505060405182815260ff84169033907ff084be75a45b3168a32e7229910fc6ce5c2a8990cfd7d16d748fa90545244b89906020015b60405180910390a3505050565b60ff808316600090815260036020526040902060020154839116610673576040516234472160e41b815260ff8216600482015260240161055b565b336000908152600460205260409020548211156106a35760405163528ef59f60e11b815260040160405180910390fd5b33600090815260046020526040812080548492906106c29084906117a8565b909155505033600090815260056020908152604080832060ff87168452909152812080548492906106f49084906117c1565b909155505060405182815260ff84169033907f980c5e85fc3fa5c70b87d37f47cb30c096e335e4f33f17c2bf5b32c999310e5f9060200161062b565b60036020526000908152604090208054819061074b90611758565b80601f016020809104026020016040519081016040528092919081815260200182805461077790611758565b80156107c45780601f10610799576101008083540402835291602001916107c4565b820191906000526020600020905b8154815290600101906020018083116107a757829003601f168201915b5050505050908060010180546107d990611758565b80601f016020809104026020016040519081016040528092919081815260200182805461080590611758565b80156108525780601f1061082757610100808354040283529160200191610852565b820191906000526020600020905b81548152906001019060200180831161083557829003601f168201915b5050506002909301549192505060ff1683565b61086d6111d2565b61087760006111ff565b565b6001546001600160a01b0316331480159061089f57506000546001600160a01b03163314155b156108bd576040516358ccea3960e11b815260040160405180910390fd5b600083815260066020526040902060018101546001600160a01b03166108f65760405163d69b537960e01b815260040160405180910390fd5b60016008820154600160801b900460ff16600181111561091857610918611404565b036109365760405163b9da156f60e01b815260040160405180910390fd5b600681018390556007810182905560088101805470ffffffffffffffffff00000000000000001916600160401b4267ffffffffffffffff160260ff60801b191617600160801b179055600481015460008312156109c6576000610998846117d4565b905082600401548110156109bb578083600401546109b691906117a8565b6109be565b60005b915050610a65565b6000831315610a65576040516340c10f1960e01b81523060048201526024810184905283907f00000000000000000000000000000000000000000000000000000000000000006001600160a01b0316906340c10f1990604401600060405180830381600087803b158015610a3957600080fd5b505af1158015610a4d573d6000803e3d6000fd5b50505050808360040154610a6191906117c1565b9150505b60018201546001600160a01b0381166000908152600560209081526040808320600160a01b90940460ff1683529290529081208054839290610aa89084906117c1565b909155505060018201546040805186815260208101869052600086121581830152905160ff600160a01b840416926001600160a01b03169188917fac93c63f7f6776f8839fc93401340bf8382fb22974795212a8ba3e66b6f292389181900360600190a45050505050565b6040805160608082018352808252602082015260009181019190915260ff821660009081526003602052604090819020815160608101909252805482908290610b5b90611758565b80601f0160208091040260200160405190810160405280929190818152602001828054610b8790611758565b8015610bd45780601f10610ba957610100808354040283529160200191610bd4565b820191906000526020600020905b815481529060010190602001808311610bb757829003601f168201915b50505050508152602001600182018054610bed90611758565b80601f0160208091040260200160405190810160405280929190818152602001828054610c1990611758565b8015610c665780601f10610c3b57610100808354040283529160200191610c66565b820191906000526020600020905b815481529060010190602001808311610c4957829003601f168201915b50505091835250506002919091015460ff16151560209091015292915050565b610c8e6111d2565b600180546001600160a01b0319166001600160a01b0383169081179091556040517f029ffe7fddb9f110cfc29fc59f9c69c7a8e1ebf63bc9005e404887419bf0dea190600090a250565b6001600160a01b038116600090815260076020908152604091829020805483518184028101840190945280845260609392830182828015610d3857602002820191906000526020600020905b815481526020019060010190808311610d24575b50505050509050919050565b6001546000906001600160a01b03163314801590610d6d57506000546001600160a01b03163314155b15610d8b576040516358ccea3960e11b815260040160405180910390fd5b60ff808816600090815260036020526040902060020154889116610dc6576040516234472160e41b815260ff8216600482015260240161055b565b6001600160a01b038916600090815260056020908152604080832060ff8c168452909152902054841115610e0d57604051632541108b60e01b815260040160405180910390fd5b6001600160a01b038916600090815260056020908152604080832060ff8c16845290915281208054869290610e439084906117a8565b909155505060028054906000610e58836117f0565b9190505591506040518061018001604052808381526020018a6001600160a01b031681526020018960ff16815260200188888080601f0160208091040260200160405190810160405280939291908181526020018383808284376000920182905250938552505050871515602083015260408201879052606082018690526080820181905260a0820181905267ffffffffffffffff421660c083015260e082018190526101009091015260008381526006602090815260409182902083518155908301516001820180549385015160ff16600160a01b026001600160a81b03199094166001600160a01b03909216919091179290921790915560608201516002820190610f65908261186f565b50608082015160038201805491151560ff1990921691909117905560a0820151600482015560c0820151600582015560e08201516006820155610100820151600782015561012082015160088201805461014085015167ffffffffffffffff908116600160401b026fffffffffffffffffffffffffffffffff1990921693169290921791909117808255610160840151919060ff60801b1916600160801b83600181111561101557611015611404565b021790555050506001600160a01b0389166000818152600760209081526040808320805460018101825590845291909220018490555160ff8a16919084907fffa41e231ecea5cf0c894de0bfef061bdf6bf6db247d401ea239f580eb2d0ac490611088908c908c908c908c908c9061192f565b60405180910390a450979650505050505050565b6110a461116a565b6110d96001600160a01b037f00000000000000000000000000000000000000000000000000000000000000001633308461124f565b33600090815260046020526040812080548392906110f89084906117c1565b909155505060405181815233907f2da466a7b24304f47e87fa2e1e5a81b9831ce54fec19055ce277ca2f39ba42c4906020016104f0565b6111376111d2565b6001600160a01b03811661116157604051631e4fbdf760e01b81526000600482015260240161055b565b610521816111ff565b61117261128b565b60027f9b779b17422d0df92223018b32b4d1fa46e071723d6817e2486d003becc55f0055565b6111a583838360016112cd565b6111cd57604051635274afe760e01b81526001600160a01b038416600482015260240161055b565b505050565b6000546001600160a01b031633146108775760405163118cdaa760e01b815233600482015260240161055b565b600080546001600160a01b038381166001600160a01b0319831681178455604051919092169283917f8be0079c531659141344cd1fd0a4f28419497f9722a3daafe3b4186f6b6457e09190a35050565b61125d848484846001611333565b61128557604051635274afe760e01b81526001600160a01b038516600482015260240161055b565b50505050565b7f9b779b17422d0df92223018b32b4d1fa46e071723d6817e2486d003becc55f005460020361087757604051633ee5aeb560e01b815260040160405180910390fd5b60405163a9059cbb60e01b60008181526001600160a01b038616600452602485905291602083604481808b5af19250600160005114831661132757838315161561131a573d6000823e3d81fd5b6000873b113d1516831692505b60405250949350505050565b6040516323b872dd60e01b60008181526001600160a01b038781166004528616602452604485905291602083606481808c5af192506001600051148316611393578383151615611386573d6000823e3d81fd5b6000883b113d1516831692505b60405250600060605295945050505050565b6000602082840312156113b757600080fd5b5035919050565b6000815180845260005b818110156113e4576020818501810151868301820152016113c8565b506000602082860101526020601f19601f83011685010191505092915050565b634e487b7160e01b600052602160045260246000fd5b6002811061143857634e487b7160e01b600052602160045260246000fd5b9052565b8c81526001600160a01b038c16602082015260ff8b166040820152610180606082018190526000906114708382018d6113be565b91505089151560808301528860a08301528760c08301528660e08301528561010083015267ffffffffffffffff808616610120840152808516610140840152506114be61016083018461141a565b9d9c50505050505050505050505050565b80356001600160a01b03811681146114e657600080fd5b919050565b803560ff811681146114e657600080fd5b6000806040838503121561150f57600080fd5b611518836114cf565b9150611526602084016114eb565b90509250929050565b6000806040838503121561154257600080fd5b61154b836114eb565b946020939093013593505050565b60006020828403121561156b57600080fd5b611574826114eb565b9392505050565b60608152600061158e60608301866113be565b82810360208401526115a081866113be565b9150508215156040830152949350505050565b6000806000606084860312156115c857600080fd5b505081359360208301359350604090920135919050565b6020815260008251606060208401526115fb60808401826113be565b90506020840151601f1984830301604085015261161882826113be565b9150506040840151151560608401528091505092915050565b60006020828403121561164357600080fd5b611574826114cf565b6020808252825182820181905260009190848201906040850190845b8181101561168457835183529284019291840191600101611668565b50909695505050505050565b803580151581146114e657600080fd5b600080600080600080600060c0888a0312156116bb57600080fd5b6116c4886114cf565b96506116d2602089016114eb565b9550604088013567ffffffffffffffff808211156116ef57600080fd5b818a0191508a601f83011261170357600080fd5b81358181111561171257600080fd5b8b602082850101111561172457600080fd5b60208301975080965050505061173c60608901611690565b92506080880135915060a0880135905092959891949750929550565b600181811c9082168061176c57607f821691505b60208210810361178c57634e487b7160e01b600052602260045260246000fd5b50919050565b634e487b7160e01b600052601160045260246000fd5b818103818111156117bb576117bb611792565b92915050565b808201808211156117bb576117bb611792565b6000600160ff1b82016117e9576117e9611792565b5060000390565b60006001820161180257611802611792565b5060010190565b634e487b7160e01b600052604160045260246000fd5b601f8211156111cd576000816000526020600020601f850160051c810160208610156118485750805b601f850160051c820191505b8181101561186757828155600101611854565b505050505050565b815167ffffffffffffffff81111561188957611889611809565b61189d816118978454611758565b8461181f565b602080601f8311600181146118d257600084156118ba5750858301515b600019600386901b1c1916600185901b178555611867565b600085815260208120601f198616915b82811015611901578886015182559484019460019091019084016118e2565b508582101561191f5787850151600019600388901b60f8161c191681555b5050505050600190811b01905550565b60808152846080820152848660a0830137600060a0868301810191909152931515602082015260408101929092526060820152601f909201601f19169091010191905056fea2646970667358221220e934e306bb89f8cd64299adab64e7c49f711911bdb0934a0d8f8b0f1053f762364736f6c63430008180033",
  "linkReferences": {},
  "deployedLinkReferences": {}
}